:1000000045C0000053C0000051C000004FC00000B8
:100010004DC000004BC0000049C0000047C00000B8
:1000200045C0000043C0000041C000003FC00000C8
:100030003DC000003BC0000039C0000037C00000D8
:1000400084C0000033C0000031C000002FC0000099
:100050002DC000002BC0000029C0000027C00000F8
:1000600025C0000023C0000021C000001FC0000008
:100070001DC000001BC0000019C0000017C0000018
:1000800015C0000013C0000011C0000011241FBEE5
:10009000CFEFD0E1DEBFCDBF21E0A0E0B1E001C0F5
:1000A0001D92A430B207E1F780D0AAC0A9CF20E00A
:1000B00030E016C04BB381E090E0022E02C0880F02
:1000C000991F0A94E2F7842B8BBB4FEF85EA9EE0E1
:1000D000415080409040E1F700C000002F5F3F4F4B
:1000E000283031053CF31BBA2FEF45EA8EE0215052
:1000F00040408040E1F700C00000089520E030E07B
:1001000016C04BB380E890E0022E02C0959587950B
:100110000A94E2F7842B8BBB4FEF85EA9EE04150B7
:1001200080409040E1F700C000002F5F3F4F283033
:1001300031053CF31BBA2FEF45EA8EE021504040D9
:100140008040E1F700C0000008951F920F920FB6A3
:100150000F9211248F939F93AF93BF9386E082BF3A
:100160008091000190910101A0910201B0910301E1
:100170000196A11DB11D8093000190930101A093F0
:100180000201B0930301BF91AF919F918F910F90A6
:100190000FBE0F901F90189586E082BF83B78460D2
:1001A00083BF81E087BF78940895F6DF8FEF8ABB25
:1001B0001BBAC0E0D0E08091000190910101A091B4
:1001C0000201B0910301843F9140A105B105A8F05F
:1001D000109200011092010110920201109203018D
:1001E00081E0209709F080E090E0CD2B21F42FEF03
:1001F0002BBBEC0102C01BBAEC0159DF7FDFDBCF68
:04020000F894FFCFA0
:00000001FF
