S015000030342E54494D45525F544553542E737265635D
S113000045C0000053C0000051C000004FC00000B4
S11300104DC000004BC0000049C0000047C00000B4
S113002045C0000043C0000041C000003FC00000C4
S11300303DC000003BC0000039C0000037C00000D4
S113004060C0000033C0000031C000002FC00000B9
S11300502DC000002BC0000029C0000027C00000F4
S113006025C0000023C0000021C000001FC0000004
S11300701DC000001BC0000019C0000017C0000014
S113008015C0000013C0000011C0000011241FBEE1
S1130090CFEFD0E1DEBFCDBF21E0A0E0B1E001C0F1
S11300A01D92AA30B207E1F76FD074C0A9CF809136
S11300B0060190910701A0910801B09109018C32C9
S11300C09140A105B105E0F01092060110920701DC
S11300D0109208011092090181E090E02091000142
S11300E030910101232B11F080E090E09093010105
S11300F080930001892B19F08FEF8BBB08951BBAF5
S113010008951F920F920FB60F9211248F939F930D
S1130110AF93BF9386E082BF80910601909107015F
S1130120A0910801B09109010196A11DB11D809310
S1130130060190930701A0930801B09309018091EF
S1130140020190910301A0910401B091050101966F
S1130150A11DB11D8093020190930301A09304019A
S1130160B0930501BF91AF919F918F910F900FBEF6
S11301700F901F90189586E082BF83B7846083BF79
S113018081E087BF78940895F6DF8FEF8ABB1BBAAE
S10B01908EDFFECFF894FFCFCF
S9030000FC
