:1000000045C0000053C0000051C000004FC00000B8
:100010004DC000004BC0000049C0000047C00000B8
:1000200045C0000043C0000041C000003FC00000C8
:100030003DC000003BC0000039C0000037C00000D8
:10004000A4C0000033C0000031C000002FC0000079
:100050002DC000002BC0000029C0000027C00000F8
:1000600025C0000023C0000021C000001FC0000008
:100070001DC000001BC0000019C0000017C0000018
:1000800015C0000013C0000011C0000011241FBEE5
:10009000CFEFD0E1DEBFCDBF21E0A0E0B1E001C0F5
:1000A0001D92AC30B207E1F7B3D0CCC0A9CF4091DC
:1000B00004015091050160910601709107014C32D5
:1000C00051406105710550F1109204011092050133
:1000D0001092060110920701209102013091030154
:1000E000283031055CF010920301109202011BBA16
:1000F00021E030E0FC01318320830895C90101969D
:10010000909303018093020181E090E002C0880F88
:10011000991F2A95E2F79BB3892B8BBB08954091D9
:1001200004015091050160910601709107014C3264
:1001300051406105710540F11092040110920501D2
:1001400010920601109207012091000130910101E7
:10015000283031054CF010920101109200011BBAB9
:10016000FC01118210820895C9010196909301014A
:100170008093000180E890E002C0959587952A95CC
:10018000E2F79BB3892B8BBB08951F920F920FB69A
:100190000F9211248F939F93AF93BF9386E082BFFA
:1001A0008091080190910901A0910A01B0910B0181
:1001B0000196A11DB11D8093080190930901A093A0
:1001C0000A01B0930B018091040190910501A09167
:1001D0000601B09107010196A11DB11D8093040194
:1001E00090930501A0930601B0930701BF91AF91D1
:1001F0009F918F910F900FBE0F901F90189586E0E2
:1002000082BF83B7846083BF81E087BF78940895FD
:10021000CF93DF9300D0CDB7DEB71A821982EFDF1C
:100220008FEF8ABB1BBA89819A81009719F00197D9
:1002300029F0F9CFCE0101963ADFF5CFCE01019634
:080240006EDFF1CFF894FFCF4F
:00000001FF
