:1000000045C0000053C0000051C000004FC00000B8
:100010004DC000004BC0000049C0000047C00000B8
:1000200045C0000043C0000041C000003FC00000C8
:100030003DC000003BC0000039C0000037C00000D8
:100040002DC1000033C0000031C000002FC00000EF
:100050002DC000002BC0000029C0000027C00000F8
:1000600025C0000023C0000021C000001FC0000008
:100070001DC000001BC0000019C0000017C0000018
:1000800015C0000013C0000011C0000011241FBEE5
:10009000CFEFD0E1DEBFCDBF21E0A0E0B1E001C0F5
:1000A0001D92A031B207E1F73CD165C1A9CF4091C3
:1000B00008015091090160910A0170910B014C32C5
:1000C00051406105710550F110920801109209012B
:1000D00010920A0110920B01209106013091070144
:1000E000283031055CF010920701109206011BBA0E
:1000F00021E030E0FC01318320830895C90101969D
:10010000909307018093060181E090E002C0880F80
:10011000991F2A95E2F79BB3892B8BBB08954091D9
:1001200008015091090160910A0170910B014C3254
:1001300051406105710550F11092080110920901BA
:1001400010920A0110920B012091040130910501D7
:10015000283031055CF010920501109204011BBAA1
:1001600022E030E0FC01318320830895C90101962B
:10017000909305018093040180E890E002C095957A
:1001800087952A95E2F79BB3892B8BBB0895409105
:1001900008015091090160910A0170910B014C32E4
:1001A000514061057105B0F11092080110920901EA
:1001B00010920A0110920B0120910201309103016B
:1001C0002430310554F0109203011092020123E013
:1001D00030E0FC013183208308954BB380E190E04F
:1001E000BC01022E02C0660F771F0A94E2F72F5F50
:1001F0003F4F02C0959587952A95E2F7862B842B71
:100200008BBB8091020190910301019690930301B1
:100210008093020108954091080150910901609175
:100220000A0170910B014C32514061057105A8F132
:10023000109208011092090110920A0110920B010C
:100240002091000130910101243031054CF01092D1
:100250000101109200011BBAFC0111821082089565
:100260004BB38FE790E0BC01022E02C075956795F5
:100270000A94E2F72F5F3F4F02C0880F991F2A951B
:10028000E2F7862384238BBB8091000190910101CA
:100290000196909301018093000108951F920F929F
:1002A0000FB60F9211248F939F93AF93BF9386E065
:1002B00082BF80910C0190910D01A0910E01B0912F
:1002C0000F010196A11DB11D80930C0190930D01AA
:1002D000A0930E01B0930F01809108019091090144
:1002E000A0910A01B0910B010196A11DB11D80934F
:1002F000080190930901A0930A01B0930B01BF91EB
:10030000AF919F918F910F900FBE0F901F901895F6
:1003100086E082BF83B7846083BF81E087BF789423
:100320000895CF93DF9300D0CDB7DEB71A8219823C
:10033000EFDF8FEF8ABB1BBA89819A8181309105EB
:1003400071F01CF4892B39F0F7CF8230910559F008
:10035000039769F0F1CFCE010196A9DEEDCFCE0172
:100360000196DDDEE9CFCE01019611DFE5CFCE01AA
:0A037000019651DFE1CFF894FFCFB2
:00000001FF
