:1000000045C0000053C0000051C000004FC00000B8
:100010004DC000004BC0000049C0000047C00000B8
:1000200045C0000043C0000041C000003FC00000C8
:100030003DC000003BC0000039C0000037C00000D8
:1000400069C0000033C0000031C000002FC00000B4
:100050002DC000002BC0000029C0000027C00000F8
:1000600025C0000023C0000021C000001FC0000008
:100070001DC000001BC0000019C0000017C0000018
:1000800015C0000013C0000011C0000011241FBEE5
:10009000CFEFD0E1DEBFCDBF21E0A0E0B1E001C0F5
:1000A0001D92AA30B207E1F778D07DC0A9CF809128
:1000B000020190910301A0910401B09105018C32DD
:1000C0009140A105B10528F110920201109203019F
:1000D000109204011092050120910001309101015C
:1000E0002830310534F010920101109200011BBA42
:1000F0000895C9010196909301018093000180E861
:1001000090E002C0959587952A95E2F79BB3892BDD
:100110008BBB08951F920F920FB60F9211248F93ED
:100120009F93AF93BF9386E082BF80910601909129
:100130000701A0910801B09109010196A11DB11D0F
:100140008093060190930701A0930801B0930901E1
:100150008091020190910301A0910401B0910501E9
:100160000196A11DB11D8093020190930301A093FC
:100170000401B0930501BF91AF919F918F910F90B2
:100180000FBE0F901F90189586E082BF83B78460E2
:1001900083BF81E087BF78940895F6DF8FEF8ABB35
:0A01A0001BBA85DFFECFF894FFCFF5
:00000001FF
